{
  "address": "0x5FbDB2315678afecb367f032d93F642f64180aa3",
  "abi": [
    {
      "inputs": [],
      "stateMutability": "nonpayable",
      "type": "constructor"
    },
    {
      "anonymous": false,
      "inputs": [],
      "name": "BeatAdded",
      "type": "event"
    },
    {
      "inputs": [
        {
          "internalType": "string",
          "name": "_data",
          "type": "string"
        },
        {
          "internalType": "uint256",
          "name": "_rhythm",
          "type": "uint256"
        }
      ],
      "name": "addBeat",
      "outputs": [],
      "stateMutability": "nonpayable",
      "type": "function"
    },
    {
      "inputs": [
        {
          "internalType": "uint256",
          "name": "",
          "type": "uint256"
        }
      ],
      "name": "beats",
      "outputs": [
        {
          "internalType": "string",
          "name": "data",
          "type": "string"
        },
        {
          "internalType": "address",
          "name": "addr",
          "type": "address"
        },
        {
          "internalType": "uint256",
          "name": "rhythm",
          "type": "uint256"
        },
        {
          "internalType": "uint256",
          "name": "goalRhythm",
          "type": "uint256"
        }
      ],
      "stateMutability": "view",
      "type": "function"
    },
    {
      "inputs": [],
      "name": "getAllBeats",
      "outputs": [
        {
          "components": [
            {
              "internalType": "string",
              "name": "data",
              "type": "string"
            },
            {
              "internalType": "address",
              "name": "addr",
              "type": "address"
            },
            {
              "internalType": "uint256",
              "name": "rhythm",
              "type": "uint256"
            },
            {
              "internalType": "uint256",
              "name": "goalRhythm",
              "type": "uint256"
            }
          ],
          "internalType": "struct Heart.Beat[]",
          "name": "",
          "type": "tuple[]"
        }
      ],
      "stateMutability": "view",
      "type": "function"
    },
    {
      "inputs": [
        {
          "internalType": "string",
          "name": "_data",
          "type": "string"
        }
      ],
      "name": "getBeats",
      "outputs": [
        {
          "components": [
            {
              "internalType": "string",
              "name": "data",
              "type": "string"
            },
            {
              "internalType": "address",
              "name": "addr",
              "type": "address"
            },
            {
              "internalType": "uint256",
              "name": "rhythm",
              "type": "uint256"
            },
            {
              "internalType": "uint256",
              "name": "goalRhythm",
              "type": "uint256"
            }
          ],
          "internalType": "struct Heart.Beat[]",
          "name": "",
          "type": "tuple[]"
        }
      ],
      "stateMutability": "view",
      "type": "function"
    },
    {
      "inputs": [],
      "name": "owner",
      "outputs": [
        {
          "internalType": "address",
          "name": "",
          "type": "address"
        }
      ],
      "stateMutability": "view",
      "type": "function"
    },
    {
      "inputs": [
        {
          "components": [
            {
              "internalType": "string",
              "name": "data",
              "type": "string"
            },
            {
              "internalType": "address",
              "name": "addr",
              "type": "address"
            },
            {
              "internalType": "uint256",
              "name": "rhythm",
              "type": "uint256"
            },
            {
              "internalType": "uint256",
              "name": "goalRhythm",
              "type": "uint256"
            }
          ],
          "internalType": "struct Heart.Beat[]",
          "name": "_beats",
          "type": "tuple[]"
        }
      ],
      "name": "reward",
      "outputs": [],
      "stateMutability": "payable",
      "type": "function"
    }
  ],
  "transactionHash": "0xf25e21c27221925ea96360e53c60643963d08027bf7f6b47b990cec51ea44b37",
  "args": [],
  "numDeployments": 1,
  "solcInputHash": "50487c8fb57b2e04dcdc974d9f57bf02",
  "bytecode": "0x608060405234801561001057600080fd5b50336000806101000a81548173ffffffffffffffffffffffffffffffffffffffff021916908373ffffffffffffffffffffffffffffffffffffffff160217905550611714806100606000396000f3fe6080604052600436106100555760003560e01c80630d4d69641461005a57806366bcd88f14610076578063670b1368146100b657806374d6102b146100f35780638da5cb5b1461011e578063ded73bbc14610149575b600080fd5b610074600480360381019061006f9190610c97565b610172565b005b34801561008257600080fd5b5061009d60048036038101906100989190610ce0565b6102f9565b6040516100ad9493929190610daa565b60405180910390f35b3480156100c257600080fd5b506100dd60048036038101906100d89190610df6565b6103e1565b6040516100ea9190610fcc565b60405180910390f35b3480156100ff57600080fd5b5061010861055a565b6040516101159190610fcc565b60405180910390f35b34801561012a57600080fd5b506101336106b5565b6040516101409190610fee565b60405180910390f35b34801561015557600080fd5b50610170600480360381019061016b9190611009565b6106d9565b005b600034116101b5576040517f08c379a00000000000000000000000000000000000000000000000000000000081526004016101ac906110d7565b60405180910390fd5b60008151116101f9576040517f08c379a00000000000000000000000000000000000000000000000000000000081526004016101f090611169565b60405180910390fd5b600081513461020891906111e7565b905060005b82518110156102f457600083828151811061022b5761022a611218565b5b60200260200101516020015173ffffffffffffffffffffffffffffffffffffffff168360405161025a90611278565b60006040518083038185875af1925050503d8060008114610297576040519150601f19603f3d011682016040523d82523d6000602084013e61029c565b606091505b50509050806102e0576040517f08c379a00000000000000000000000000000000000000000000000000000000081526004016102d7906112d9565b60405180910390fd5b5080806102ec906112f9565b91505061020d565b505050565b6002818154811061030957600080fd5b906000526020600020906004020160009150905080600001805461032c90611370565b80601f016020809104026020016040519081016040528092919081815260200182805461035890611370565b80156103a55780601f1061037a576101008083540402835291602001916103a5565b820191906000526020600020905b81548152906001019060200180831161038857829003601f168201915b5050505050908060010160009054906101000a900473ffffffffffffffffffffffffffffffffffffffff16908060020154908060030154905084565b60606001826040516103f391906113dd565b9081526020016040518091039020805480602002602001604051908101604052809291908181526020016000905b8282101561054f578382906000526020600020906004020160405180608001604052908160008201805461045490611370565b80601f016020809104026020016040519081016040528092919081815260200182805461048090611370565b80156104cd5780601f106104a2576101008083540402835291602001916104cd565b820191906000526020600020905b8154815290600101906020018083116104b057829003601f168201915b505050505081526020016001820160009054906101000a900473ffffffffffffffffffffffffffffffffffffffff1673ffffffffffffffffffffffffffffffffffffffff1673ffffffffffffffffffffffffffffffffffffffff1681526020016002820154815260200160038201548152505081526020019060010190610421565b505050509050919050565b60606002805480602002602001604051908101604052809291908181526020016000905b828210156106ac57838290600052602060002090600402016040518060800160405290816000820180546105b190611370565b80601f01602080910402602001604051908101604052809291908181526020018280546105dd90611370565b801561062a5780601f106105ff5761010080835404028352916020019161062a565b820191906000526020600020905b81548152906001019060200180831161060d57829003601f168201915b505050505081526020016001820160009054906101000a900473ffffffffffffffffffffffffffffffffffffffff1673ffffffffffffffffffffffffffffffffffffffff1673ffffffffffffffffffffffffffffffffffffffff168152602001600282015481526020016003820154815250508152602001906001019061057e565b50505050905090565b60008054906101000a900473ffffffffffffffffffffffffffffffffffffffff1681565b600081101580156106ee57506305f5e1008111155b61072d576040517f08c379a000000000000000000000000000000000000000000000000000000000815260040161072490611440565b60405180910390fd5b60018260405161073d91906113dd565b908152602001604051809103902060405180608001604052808481526020013373ffffffffffffffffffffffffffffffffffffffff1681526020018381526020016000815250908060018154018082558091505060019003906000526020600020906004020160009091909190915060008201518160000190816107c1919061160c565b5060208201518160010160006101000a81548173ffffffffffffffffffffffffffffffffffffffff021916908373ffffffffffffffffffffffffffffffffffffffff16021790555060408201518160020155606082015181600301555050600260405180608001604052808481526020013373ffffffffffffffffffffffffffffffffffffffff168152602001838152602001600081525090806001815401808255809150506001900390600052602060002090600402016000909190919091506000820151816000019081610897919061160c565b5060208201518160010160006101000a81548173ffffffffffffffffffffffffffffffffffffffff021916908373ffffffffffffffffffffffffffffffffffffffff160217905550604082015181600201556060820151816003015550507f7f19a7a1872d0a27ef7d8af759cc8d95c371eff9a5b5aea237e29c48a57d2c3960405160405180910390a15050565b6000604051905090565b600080fd5b600080fd5b600080fd5b6000601f19601f8301169050919050565b7f4e487b7100000000000000000000000000000000000000000000000000000000600052604160045260246000fd5b6109878261093e565b810181811067ffffffffffffffff821117156109a6576109a561094f565b5b80604052505050565b60006109b9610925565b90506109c5828261097e565b919050565b600067ffffffffffffffff8211156109e5576109e461094f565b5b602082029050602081019050919050565b600080fd5b600080fd5b600080fd5b600080fd5b600067ffffffffffffffff821115610a2557610a2461094f565b5b610a2e8261093e565b9050602081019050919050565b82818337600083830152505050565b6000610a5d610a5884610a0a565b6109af565b905082815260208101848484011115610a7957610a78610a05565b5b610a84848285610a3b565b509392505050565b600082601f830112610aa157610aa0610939565b5b8135610ab1848260208601610a4a565b91505092915050565b600073ffffffffffffffffffffffffffffffffffffffff82169050919050565b6000610ae582610aba565b9050919050565b610af581610ada565b8114610b0057600080fd5b50565b600081359050610b1281610aec565b92915050565b6000819050919050565b610b2b81610b18565b8114610b3657600080fd5b50565b600081359050610b4881610b22565b92915050565b600060808284031215610b6457610b636109fb565b5b610b6e60806109af565b9050600082013567ffffffffffffffff811115610b8e57610b8d610a00565b5b610b9a84828501610a8c565b6000830152506020610bae84828501610b03565b6020830152506040610bc284828501610b39565b6040830152506060610bd684828501610b39565b60608301525092915050565b6000610bf5610bf0846109ca565b6109af565b90508083825260208201905060208402830185811115610c1857610c176109f6565b5b835b81811015610c5f57803567ffffffffffffffff811115610c3d57610c3c610939565b5b808601610c4a8982610b4e565b85526020850194505050602081019050610c1a565b5050509392505050565b600082601f830112610c7e57610c7d610939565b5b8135610c8e848260208601610be2565b91505092915050565b600060208284031215610cad57610cac61092f565b5b600082013567ffffffffffffffff811115610ccb57610cca610934565b5b610cd784828501610c69565b91505092915050565b600060208284031215610cf657610cf561092f565b5b6000610d0484828501610b39565b91505092915050565b600081519050919050565b600082825260208201905092915050565b60005b83811015610d47578082015181840152602081019050610d2c565b60008484015250505050565b6000610d5e82610d0d565b610d688185610d18565b9350610d78818560208601610d29565b610d818161093e565b840191505092915050565b610d9581610ada565b82525050565b610da481610b18565b82525050565b60006080820190508181036000830152610dc48187610d53565b9050610dd36020830186610d8c565b610de06040830185610d9b565b610ded6060830184610d9b565b95945050505050565b600060208284031215610e0c57610e0b61092f565b5b600082013567ffffffffffffffff811115610e2a57610e29610934565b5b610e3684828501610a8c565b91505092915050565b600081519050919050565b600082825260208201905092915050565b6000819050602082019050919050565b600082825260208201905092915050565b6000610e8782610d0d565b610e918185610e6b565b9350610ea1818560208601610d29565b610eaa8161093e565b840191505092915050565b610ebe81610ada565b82525050565b610ecd81610b18565b82525050565b60006080830160008301518482036000860152610ef08282610e7c565b9150506020830151610f056020860182610eb5565b506040830151610f186040860182610ec4565b506060830151610f2b6060860182610ec4565b508091505092915050565b6000610f428383610ed3565b905092915050565b6000602082019050919050565b6000610f6282610e3f565b610f6c8185610e4a565b935083602082028501610f7e85610e5b565b8060005b85811015610fba5784840389528151610f9b8582610f36565b9450610fa683610f4a565b925060208a01995050600181019050610f82565b50829750879550505050505092915050565b60006020820190508181036000830152610fe68184610f57565b905092915050565b60006020820190506110036000830184610d8c565b92915050565b600080604083850312156110205761101f61092f565b5b600083013567ffffffffffffffff81111561103e5761103d610934565b5b61104a85828601610a8c565b925050602061105b85828601610b39565b9150509250929050565b7f5b4552525d204d6573736167652076616c7565206973206e6f7420706f73697460008201527f6976652e00000000000000000000000000000000000000000000000000000000602082015250565b60006110c1602483610d18565b91506110cc82611065565b604082019050919050565b600060208201905081810360008301526110f0816110b4565b9050919050565b7f5b4552525d20526571756972657320616e206172726179206f6620426561747360008201527f2e00000000000000000000000000000000000000000000000000000000000000602082015250565b6000611153602183610d18565b915061115e826110f7565b604082019050919050565b6000602082019050818103600083015261118281611146565b9050919050565b7f4e487b7100000000000000000000000000000000000000000000000000000000600052601260045260246000fd5b7f4e487b7100000000000000000000000000000000000000000000000000000000600052601160045260246000fd5b60006111f282610b18565b91506111fd83610b18565b92508261120d5761120c611189565b5b828204905092915050565b7f4e487b7100000000000000000000000000000000000000000000000000000000600052603260045260246000fd5b600081905092915050565b50565b6000611262600083611247565b915061126d82611252565b600082019050919050565b600061128382611255565b9150819050919050565b7f5b4552525d20455448207472616e666572206661696c65642e00000000000000600082015250565b60006112c3601983610d18565b91506112ce8261128d565b602082019050919050565b600060208201905081810360008301526112f2816112b6565b9050919050565b600061130482610b18565b91507fffffffffffffffffffffffffffffffffffffffffffffffffffffffffffffffff8203611336576113356111b8565b5b600182019050919050565b7f4e487b7100000000000000000000000000000000000000000000000000000000600052602260045260246000fd5b6000600282049050600182168061138857607f821691505b60208210810361139b5761139a611341565b5b50919050565b600081905092915050565b60006113b782610d0d565b6113c181856113a1565b93506113d1818560208601610d29565b80840191505092915050565b60006113e982846113ac565b915081905092915050565b7f5b4552525d000000000000000000000000000000000000000000000000000000600082015250565b600061142a600583610d18565b9150611435826113f4565b602082019050919050565b600060208201905081810360008301526114598161141d565b9050919050565b60008190508160005260206000209050919050565b60006020601f8301049050919050565b600082821b905092915050565b6000600883026114c27fffffffffffffffffffffffffffffffffffffffffffffffffffffffffffffffff82611485565b6114cc8683611485565b95508019841693508086168417925050509392505050565b6000819050919050565b60006115096115046114ff84610b18565b6114e4565b610b18565b9050919050565b6000819050919050565b611523836114ee565b61153761152f82611510565b848454611492565b825550505050565b600090565b61154c61153f565b61155781848461151a565b505050565b5b8181101561157b57611570600082611544565b60018101905061155d565b5050565b601f8211156115c05761159181611460565b61159a84611475565b810160208510156115a9578190505b6115bd6115b585611475565b83018261155c565b50505b505050565b600082821c905092915050565b60006115e3600019846008026115c5565b1980831691505092915050565b60006115fc83836115d2565b9150826002028217905092915050565b61161582610d0d565b67ffffffffffffffff81111561162e5761162d61094f565b5b6116388254611370565b61164382828561157f565b600060209050601f8311600181146116765760008415611664578287015190505b61166e85826115f0565b8655506116d6565b601f19841661168486611460565b60005b828110156116ac57848901518255600182019150602085019450602081019050611687565b868310156116c957848901516116c5601f8916826115d2565b8355505b6001600288020188555050505b50505050505056fea2646970667358221220126c4b2145ae89cb48d871b40215c032c9061c53839088d3a20dd77ba765b15f64736f6c63430008110033",
  "devdoc": {
    "kind": "dev",
    "methods": {},
    "version": 1
  },
  "userdoc": {
    "kind": "user",
    "methods": {},
    "version": 1
  },
  "storageLayout": {
    "storage": [
      {
        "astId": 5,
        "contract": "contracts/Heart.sol:Heart",
        "label": "owner",
        "offset": 0,
        "slot": "0",
        "type": "t_address"
      },
      {
        "astId": 20,
        "contract": "contracts/Heart.sol:Heart",
        "label": "dataToBeat",
        "offset": 0,
        "slot": "1",
        "type": "t_mapping(t_string_memory_ptr,t_array(t_struct(Beat)14_storage)dyn_storage)"
      },
      {
        "astId": 24,
        "contract": "contracts/Heart.sol:Heart",
        "label": "beats",
        "offset": 0,
        "slot": "2",
        "type": "t_array(t_struct(Beat)14_storage)dyn_storage"
      }
    ],
    "types": {
      "t_address": {
        "encoding": "inplace",
        "label": "address",
        "numberOfBytes": "20"
      },
      "t_array(t_struct(Beat)14_storage)dyn_storage": {
        "base": "t_struct(Beat)14_storage",
        "encoding": "dynamic_array",
        "label": "struct Heart.Beat[]",
        "numberOfBytes": "32"
      },
      "t_mapping(t_string_memory_ptr,t_array(t_struct(Beat)14_storage)dyn_storage)": {
        "encoding": "mapping",
        "key": "t_string_memory_ptr",
        "label": "mapping(string => struct Heart.Beat[])",
        "numberOfBytes": "32",
        "value": "t_array(t_struct(Beat)14_storage)dyn_storage"
      },
      "t_string_memory_ptr": {
        "encoding": "bytes",
        "label": "string",
        "numberOfBytes": "32"
      },
      "t_string_storage": {
        "encoding": "bytes",
        "label": "string",
        "numberOfBytes": "32"
      },
      "t_struct(Beat)14_storage": {
        "encoding": "inplace",
        "label": "struct Heart.Beat",
        "members": [
          {
            "astId": 7,
            "contract": "contracts/Heart.sol:Heart",
            "label": "data",
            "offset": 0,
            "slot": "0",
            "type": "t_string_storage"
          },
          {
            "astId": 9,
            "contract": "contracts/Heart.sol:Heart",
            "label": "addr",
            "offset": 0,
            "slot": "1",
            "type": "t_address"
          },
          {
            "astId": 11,
            "contract": "contracts/Heart.sol:Heart",
            "label": "rhythm",
            "offset": 0,
            "slot": "2",
            "type": "t_uint256"
          },
          {
            "astId": 13,
            "contract": "contracts/Heart.sol:Heart",
            "label": "goalRhythm",
            "offset": 0,
            "slot": "3",
            "type": "t_uint256"
          }
        ],
        "numberOfBytes": "128"
      },
      "t_uint256": {
        "encoding": "inplace",
        "label": "uint256",
        "numberOfBytes": "32"
      }
    }
  }
}